{
  "contractName": "HelloWorld",
  "abi": [
    {
      "inputs": [
        {
          "internalType": "string",
          "name": "_x",
          "type": "string"
        }
      ],
      "stateMutability": "nonpayable",
      "type": "constructor"
    },
    {
      "inputs": [],
      "name": "myString",
      "outputs": [
        {
          "internalType": "string",
          "name": "",
          "type": "string"
        }
      ],
      "stateMutability": "view",
      "type": "function"
    },
    {
      "inputs": [],
      "name": "owner",
      "outputs": [
        {
          "internalType": "address",
          "name": "",
          "type": "address"
        }
      ],
      "stateMutability": "view",
      "type": "function"
    },
    {
      "inputs": [],
      "name": "helloworldprint",
      "outputs": [
        {
          "internalType": "string",
          "name": "",
          "type": "string"
        }
      ],
      "stateMutability": "view",
      "type": "function"
    },
    {
      "inputs": [
        {
          "internalType": "uint256",
          "name": "x",
          "type": "uint256"
        },
        {
          "internalType": "uint256",
          "name": "y",
          "type": "uint256"
        }
      ],
      "name": "adder",
      "outputs": [
        {
          "internalType": "uint256",
          "name": "",
          "type": "uint256"
        }
      ],
      "stateMutability": "pure",
      "type": "function"
    },
    {
      "inputs": [
        {
          "internalType": "string",
          "name": "newString",
          "type": "string"
        }
      ],
      "name": "changeString",
      "outputs": [],
      "stateMutability": "nonpayable",
      "type": "function"
    }
  ],
  "bytecode": "0x60806040523480156200001157600080fd5b5060405162000b2b38038062000b2b8339818101604052810190620000379190620001c6565b33600160006101000a81548173ffffffffffffffffffffffffffffffffffffffff021916908373ffffffffffffffffffffffffffffffffffffffff16021790555080600090805190602001906200009092919062000098565b50506200039b565b828054620000a690620002ac565b90600052602060002090601f016020900481019282620000ca576000855562000116565b82601f10620000e557805160ff191683800117855562000116565b8280016001018555821562000116579182015b8281111562000115578251825591602001919060010190620000f8565b5b50905062000125919062000129565b5090565b5b80821115620001445760008160009055506001016200012a565b5090565b60006200015f620001598462000240565b62000217565b9050828152602081018484840111156200017e576200017d6200037b565b5b6200018b84828562000276565b509392505050565b600082601f830112620001ab57620001aa62000376565b5b8151620001bd84826020860162000148565b91505092915050565b600060208284031215620001df57620001de62000385565b5b600082015167ffffffffffffffff8111156200020057620001ff62000380565b5b6200020e8482850162000193565b91505092915050565b60006200022362000236565b9050620002318282620002e2565b919050565b6000604051905090565b600067ffffffffffffffff8211156200025e576200025d62000347565b5b62000269826200038a565b9050602081019050919050565b60005b838110156200029657808201518184015260208101905062000279565b83811115620002a6576000848401525b50505050565b60006002820490506001821680620002c557607f821691505b60208210811415620002dc57620002db62000318565b5b50919050565b620002ed826200038a565b810181811067ffffffffffffffff821117156200030f576200030e62000347565b5b80604052505050565b7f4e487b7100000000000000000000000000000000000000000000000000000000600052602260045260246000fd5b7f4e487b7100000000000000000000000000000000000000000000000000000000600052604160045260246000fd5b600080fd5b600080fd5b600080fd5b600080fd5b6000601f19601f8301169050919050565b61078080620003ab6000396000f3fe608060405234801561001057600080fd5b50600436106100575760003560e01c806306b034e91461005c578063492bfa181461008c5780635dd8e1c9146100aa5780638da5cb5b146100c6578063b5bf462c146100e4575b600080fd5b610076600480360381019061007191906103e9565b610102565b60405161008391906104bd565b60405180910390f35b610094610118565b6040516100a1919061049b565b60405180910390f35b6100c460048036038101906100bf91906103a0565b6101a6565b005b6100ce6101c0565b6040516100db9190610480565b60405180910390f35b6100ec6101e6565b6040516100f9919061049b565b60405180910390f35b60008183610110919061054a565b905092915050565b600080546101259061061e565b80601f01602080910402602001604051908101604052809291908181526020018280546101519061061e565b801561019e5780601f106101735761010080835404028352916020019161019e565b820191906000526020600020905b81548152906001019060200180831161018157829003601f168201915b505050505081565b80600090805190602001906101bc929190610278565b5050565b600160009054906101000a900473ffffffffffffffffffffffffffffffffffffffff1681565b6060600080546101f59061061e565b80601f01602080910402602001604051908101604052809291908181526020018280546102219061061e565b801561026e5780601f106102435761010080835404028352916020019161026e565b820191906000526020600020905b81548152906001019060200180831161025157829003601f168201915b5050505050905090565b8280546102849061061e565b90600052602060002090601f0160209004810192826102a657600085556102ed565b82601f106102bf57805160ff19168380011785556102ed565b828001600101855582156102ed579182015b828111156102ec5782518255916020019190600101906102d1565b5b5090506102fa91906102fe565b5090565b5b808211156103175760008160009055506001016102ff565b5090565b600061032e610329846104fd565b6104d8565b90508281526020810184848401111561034a57610349610713565b5b6103558482856105dc565b509392505050565b600082601f8301126103725761037161070e565b5b813561038284826020860161031b565b91505092915050565b60008135905061039a81610733565b92915050565b6000602082840312156103b6576103b561071d565b5b600082013567ffffffffffffffff8111156103d4576103d3610718565b5b6103e08482850161035d565b91505092915050565b60008060408385031215610400576103ff61071d565b5b600061040e8582860161038b565b925050602061041f8582860161038b565b9150509250929050565b610432816105a0565b82525050565b60006104438261052e565b61044d8185610539565b935061045d8185602086016105eb565b61046681610722565b840191505092915050565b61047a816105d2565b82525050565b60006020820190506104956000830184610429565b92915050565b600060208201905081810360008301526104b58184610438565b905092915050565b60006020820190506104d26000830184610471565b92915050565b60006104e26104f3565b90506104ee8282610650565b919050565b6000604051905090565b600067ffffffffffffffff821115610518576105176106df565b5b61052182610722565b9050602081019050919050565b600081519050919050565b600082825260208201905092915050565b6000610555826105d2565b9150610560836105d2565b9250827fffffffffffffffffffffffffffffffffffffffffffffffffffffffffffffffff0382111561059557610594610681565b5b828201905092915050565b60006105ab826105b2565b9050919050565b600073ffffffffffffffffffffffffffffffffffffffff82169050919050565b6000819050919050565b82818337600083830152505050565b60005b838110156106095780820151818401526020810190506105ee565b83811115610618576000848401525b50505050565b6000600282049050600182168061063657607f821691505b6020821081141561064a576106496106b0565b5b50919050565b61065982610722565b810181811067ffffffffffffffff82111715610678576106776106df565b5b80604052505050565b7f4e487b7100000000000000000000000000000000000000000000000000000000600052601160045260246000fd5b7f4e487b7100000000000000000000000000000000000000000000000000000000600052602260045260246000fd5b7f4e487b7100000000000000000000000000000000000000000000000000000000600052604160045260246000fd5b600080fd5b600080fd5b600080fd5b600080fd5b6000601f19601f8301169050919050565b61073c816105d2565b811461074757600080fd5b5056fea26469706673582212204cff7fd6394c95fa8ca9a80d97ccbd544f138743d35617f51177afd61bd138af64736f6c63430008070033",
  "immutableReferences": {},
  "source": "// SPDX-License-Identifier: MIT\n\npragma solidity 0.8.7;\ncontract HelloWorld{\n    string public myString;\n    address public owner;\n\n    constructor(string memory _x){\n        owner = msg.sender;\n        myString = _x;\n    }\n\n    function helloworldprint() external view returns (string memory){\n\n        return myString;\n    }\n\n    function adder(uint x, uint y) external pure returns (uint){\n        return x + y;\n    }\n    function changeString(string memory newString) external{\n        myString = newString;\n    }\n}\n",
  "sourcePath": "/Users/vade/Desktop/Solidity/HelloWorld/contracts/HelloWorld.sol",
  "compiler": {
    "name": "solc",
    "version": "0.8.7+commit.e28d00a7.Emscripten.clang"
  },
  "schemaVersion": "3.4.5",
  "updatedAt": "2022-03-09T13:25:00.667Z",
  "devdoc": {
    "kind": "dev",
    "methods": {},
    "version": 1
  },
  "userdoc": {
    "kind": "user",
    "methods": {},
    "version": 1
  }
}